{
  "_format": "hh-sol-artifact-1",
  "contractName": "fixedDeposit",
  "sourceName": "contracts/fixedDeposit.sol",
  "abi": [
    {
      "inputs": [
        {
          "internalType": "uint256",
          "name": "__amount",
          "type": "uint256"
        },
        {
          "internalType": "uint256",
          "name": "__time",
          "type": "uint256"
        },
        {
          "internalType": "address",
          "name": "__account_number",
          "type": "address"
        }
      ],
      "stateMutability": "nonpayable",
      "type": "constructor"
    },
    {
      "inputs": [],
      "name": "check",
      "outputs": [
        {
          "internalType": "bool",
          "name": "",
          "type": "bool"
        }
      ],
      "stateMutability": "view",
      "type": "function"
    },
    {
      "inputs": [],
      "name": "transfer_amount",
      "outputs": [
        {
          "internalType": "bool",
          "name": "",
          "type": "bool"
        }
      ],
      "stateMutability": "nonpayable",
      "type": "function"
    }
  ],
  "bytecode": "0x608060405234801561001057600080fd5b506040516102b73803806102b783398181016040528101906100329190610163565b826000819055508160018190555080600460006101000a81548173ffffffffffffffffffffffffffffffffffffffff021916908373ffffffffffffffffffffffffffffffffffffffff16021790555030600360006101000a81548173ffffffffffffffffffffffffffffffffffffffff021916908373ffffffffffffffffffffffffffffffffffffffff1602179055505050506101b6565b600080fd5b6000819050919050565b6100e2816100cf565b81146100ed57600080fd5b50565b6000815190506100ff816100d9565b92915050565b600073ffffffffffffffffffffffffffffffffffffffff82169050919050565b600061013082610105565b9050919050565b61014081610125565b811461014b57600080fd5b50565b60008151905061015d81610137565b92915050565b60008060006060848603121561017c5761017b6100ca565b5b600061018a868287016100f0565b935050602061019b868287016100f0565b92505060406101ac8682870161014e565b9150509250925092565b60f3806101c46000396000f3fe6080604052348015600f57600080fd5b506004361060325760003560e01c8063919840ad146037578063c61ffd29146051575b600080fd5b603d606b565b6040516048919060a4565b60405180910390f35b60576086565b6040516062919060a4565b60405180910390f35b6000600154421115607e57600190506083565b600090505b90565b600090565b60008115159050919050565b609e81608b565b82525050565b600060208201905060b760008301846097565b9291505056fea264697066735822122033357912bd1d6b175f031bc56310f7192c9a951c8ed5ced4716e1641f3d1478464736f6c63430008110033",
  "linkReferences": {},
  "deployedLinkReferences": {}
}