{
  "_format": "hh-sol-artifact-1",
  "contractName": "fixedDeposit",
  "sourceName": "contracts/fixedDeposit.sol",
  "abi": [
    {
      "inputs": [
        {
          "internalType": "uint256",
          "name": "__amount",
          "type": "uint256"
        },
        {
          "internalType": "uint256",
          "name": "__time",
          "type": "uint256"
        },
        {
          "internalType": "address",
          "name": "__account_number",
          "type": "address"
        }
      ],
      "stateMutability": "nonpayable",
      "type": "constructor"
    },
    {
      "inputs": [],
      "name": "check",
      "outputs": [
        {
          "internalType": "bool",
          "name": "",
          "type": "bool"
        }
      ],
      "stateMutability": "view",
      "type": "function"
    },
    {
      "inputs": [
        {
          "internalType": "address",
          "name": "add",
          "type": "address"
        }
      ],
      "name": "transfer_amount",
      "outputs": [
        {
          "internalType": "bool",
          "name": "",
          "type": "bool"
        }
      ],
      "stateMutability": "nonpayable",
      "type": "function"
    }
  ],
  "bytecode": "0x608060405234801561001057600080fd5b5060405161036e38038061036e83398181016040528101906100329190610163565b826000819055508160018190555080600460006101000a81548173ffffffffffffffffffffffffffffffffffffffff021916908373ffffffffffffffffffffffffffffffffffffffff16021790555030600360006101000a81548173ffffffffffffffffffffffffffffffffffffffff021916908373ffffffffffffffffffffffffffffffffffffffff1602179055505050506101b6565b600080fd5b6000819050919050565b6100e2816100cf565b81146100ed57600080fd5b50565b6000815190506100ff816100d9565b92915050565b600073ffffffffffffffffffffffffffffffffffffffff82169050919050565b600061013082610105565b9050919050565b61014081610125565b811461014b57600080fd5b50565b60008151905061015d81610137565b92915050565b60008060006060848603121561017c5761017b6100ca565b5b600061018a868287016100f0565b935050602061019b868287016100f0565b92505060406101ac8682870161014e565b9150509250925092565b6101a9806101c56000396000f3fe608060405234801561001057600080fd5b50600436106100365760003560e01c8063919840ad1461003b578063a83f902f14610059575b600080fd5b610043610089565b60405161005091906100c8565b60405180910390f35b610073600480360381019061006e9190610146565b6100a6565b60405161008091906100c8565b60405180910390f35b600060015442111561009e57600190506100a3565b600090505b90565b6000919050565b60008115159050919050565b6100c2816100ad565b82525050565b60006020820190506100dd60008301846100b9565b92915050565b600080fd5b600073ffffffffffffffffffffffffffffffffffffffff82169050919050565b6000610113826100e8565b9050919050565b61012381610108565b811461012e57600080fd5b50565b6000813590506101408161011a565b92915050565b60006020828403121561015c5761015b6100e3565b5b600061016a84828501610131565b9150509291505056fea2646970667358221220e25225c3b4db73db4dac9db40918e2784e44e4597d0a04202d043aaa47755f4964736f6c63430008110033",
  "linkReferences": {},
  "deployedLinkReferences": {}
}