{
  "_format": "hh-sol-artifact-1",
  "contractName": "account",
  "sourceName": "contracts/account.sol",
  "abi": [
    {
      "inputs": [],
      "stateMutability": "nonpayable",
      "type": "constructor"
    },
    {
      "inputs": [
        {
          "internalType": "int256",
          "name": "money",
          "type": "int256"
        }
      ],
      "name": "deposit",
      "outputs": [],
      "stateMutability": "nonpayable",
      "type": "function"
    },
    {
      "inputs": [],
      "name": "getBalance",
      "outputs": [
        {
          "internalType": "int256",
          "name": "",
          "type": "int256"
        }
      ],
      "stateMutability": "view",
      "type": "function"
    },
    {
      "inputs": [
        {
          "internalType": "int256",
          "name": "money",
          "type": "int256"
        }
      ],
      "name": "withdraw",
      "outputs": [],
      "stateMutability": "nonpayable",
      "type": "function"
    }
  ],
  "bytecode": "0x608060405234801561001057600080fd5b50306000806101000a81548173ffffffffffffffffffffffffffffffffffffffff021916908373ffffffffffffffffffffffffffffffffffffffff1602179055506000600181905550610279806100686000396000f3fe608060405234801561001057600080fd5b50600436106100415760003560e01c806312065fe0146100465780637e62eab814610064578063f04991f014610080575b600080fd5b61004e61009c565b60405161005b9190610114565b60405180910390f35b61007e60048036038101906100799190610160565b6100a6565b005b61009a60048036038101906100959190610160565b6100df565b005b6000600154905090565b6001548113156100b95760006001819055505b60015481136100dc5780600160008282546100d491906101bc565b925050819055505b50565b80600160008282546100f191906101ff565b9250508190555050565b6000819050919050565b61010e816100fb565b82525050565b60006020820190506101296000830184610105565b92915050565b600080fd5b61013d816100fb565b811461014857600080fd5b50565b60008135905061015a81610134565b92915050565b6000602082840312156101765761017561012f565b5b60006101848482850161014b565b91505092915050565b7f4e487b7100000000000000000000000000000000000000000000000000000000600052601160045260246000fd5b60006101c7826100fb565b91506101d2836100fb565b92508282039050818112600084121682821360008512151617156101f9576101f861018d565b5b92915050565b600061020a826100fb565b9150610215836100fb565b92508282019050828112156000831216838212600084121516171561023d5761023c61018d565b5b9291505056fea2646970667358221220d0faca1c24295f2bdb7aa48c761827b12454653abb64aca627b53b091ea596f264736f6c63430008110033",
  "linkReferences": {},
  "deployedLinkReferences": {}
}