{
  "_format": "hh-sol-artifact-1",
  "contractName": "account",
  "sourceName": "contracts/account.sol",
  "abi": [
    {
      "inputs": [
        {
          "internalType": "string",
          "name": "__password",
          "type": "string"
        },
        {
          "internalType": "int256",
          "name": "__amount",
          "type": "int256"
        }
      ],
      "stateMutability": "nonpayable",
      "type": "constructor"
    },
    {
      "inputs": [
        {
          "internalType": "int256",
          "name": "money",
          "type": "int256"
        }
      ],
      "name": "deposit",
      "outputs": [
        {
          "internalType": "int256",
          "name": "",
          "type": "int256"
        }
      ],
      "stateMutability": "nonpayable",
      "type": "function"
    },
    {
      "inputs": [],
      "name": "getBalance",
      "outputs": [
        {
          "internalType": "int256",
          "name": "",
          "type": "int256"
        }
      ],
      "stateMutability": "view",
      "type": "function"
    },
    {
      "inputs": [
        {
          "internalType": "int256",
          "name": "money",
          "type": "int256"
        }
      ],
      "name": "withdraw",
      "outputs": [
        {
          "internalType": "int256",
          "name": "",
          "type": "int256"
        }
      ],
      "stateMutability": "nonpayable",
      "type": "function"
    }
  ],
  "bytecode": "0x60806040523480156200001157600080fd5b50604051620008ef380380620008ef833981810160405281019062000037919062000266565b816001908162000048919062000517565b50306000806101000a81548173ffffffffffffffffffffffffffffffffffffffff021916908373ffffffffffffffffffffffffffffffffffffffff160217905550806002819055505050620005fe565b6000604051905090565b600080fd5b600080fd5b600080fd5b600080fd5b6000601f19601f8301169050919050565b7f4e487b7100000000000000000000000000000000000000000000000000000000600052604160045260246000fd5b6200010182620000b6565b810181811067ffffffffffffffff82111715620001235762000122620000c7565b5b80604052505050565b60006200013862000098565b9050620001468282620000f6565b919050565b600067ffffffffffffffff821115620001695762000168620000c7565b5b6200017482620000b6565b9050602081019050919050565b60005b83811015620001a157808201518184015260208101905062000184565b60008484015250505050565b6000620001c4620001be846200014b565b6200012c565b905082815260208101848484011115620001e357620001e2620000b1565b5b620001f084828562000181565b509392505050565b600082601f83011262000210576200020f620000ac565b5b815162000222848260208601620001ad565b91505092915050565b6000819050919050565b62000240816200022b565b81146200024c57600080fd5b50565b600081519050620002608162000235565b92915050565b6000806040838503121562000280576200027f620000a2565b5b600083015167ffffffffffffffff811115620002a157620002a0620000a7565b5b620002af85828601620001f8565b9250506020620002c2858286016200024f565b9150509250929050565b600081519050919050565b7f4e487b7100000000000000000000000000000000000000000000000000000000600052602260045260246000fd5b600060028204905060018216806200031f57607f821691505b602082108103620003355762000334620002d7565b5b50919050565b60008190508160005260206000209050919050565b60006020601f8301049050919050565b600082821b905092915050565b6000600883026200039f7fffffffffffffffffffffffffffffffffffffffffffffffffffffffffffffffff8262000360565b620003ab868362000360565b95508019841693508086168417925050509392505050565b6000819050919050565b6000819050919050565b6000620003f8620003f2620003ec84620003c3565b620003cd565b620003c3565b9050919050565b6000819050919050565b6200041483620003d7565b6200042c6200042382620003ff565b8484546200036d565b825550505050565b600090565b6200044362000434565b6200045081848462000409565b505050565b5b8181101562000478576200046c60008262000439565b60018101905062000456565b5050565b601f821115620004c75762000491816200033b565b6200049c8462000350565b81016020851015620004ac578190505b620004c4620004bb8562000350565b83018262000455565b50505b505050565b600082821c905092915050565b6000620004ec60001984600802620004cc565b1980831691505092915050565b6000620005078383620004d9565b9150826002028217905092915050565b6200052282620002cc565b67ffffffffffffffff8111156200053e576200053d620000c7565b5b6200054a825462000306565b620005578282856200047c565b600060209050601f8311600181146200058f57600084156200057a578287015190505b620005868582620004f9565b865550620005f6565b601f1984166200059f866200033b565b60005b82811015620005c957848901518255600182019150602085019450602081019050620005a2565b86831015620005e95784890151620005e5601f891682620004d9565b8355505b6001600288020188555050505b505050505050565b6102e1806200060e6000396000f3fe608060405234801561001057600080fd5b50600436106100415760003560e01c806312065fe0146100465780637e62eab814610064578063f04991f014610094575b600080fd5b61004e6100c4565b60405161005b919061017c565b60405180910390f35b61007e600480360381019061007991906101c8565b6100ce565b60405161008b919061017c565b60405180910390f35b6100ae60048036038101906100a991906101c8565b610139565b6040516100bb919061017c565b60405180910390f35b6000600254905090565b6000600254821315610102577fffffffffffffffffffffffffffffffffffffffffffffffffffffffffffffffff9050610134565b600254821361013357816002600082825461011d9190610224565b9250508190555061012c6100c4565b9050610134565b5b919050565b6000816002600082825461014d9190610267565b9250508190555061015c6100c4565b9050919050565b6000819050919050565b61017681610163565b82525050565b6000602082019050610191600083018461016d565b92915050565b600080fd5b6101a581610163565b81146101b057600080fd5b50565b6000813590506101c28161019c565b92915050565b6000602082840312156101de576101dd610197565b5b60006101ec848285016101b3565b91505092915050565b7f4e487b7100000000000000000000000000000000000000000000000000000000600052601160045260246000fd5b600061022f82610163565b915061023a83610163565b9250828203905081811260008412168282136000851215161715610261576102606101f5565b5b92915050565b600061027282610163565b915061027d83610163565b9250828201905082811215600083121683821260008412151617156102a5576102a46101f5565b5b9291505056fea2646970667358221220441a70f05662f18de2c3ef93f684709a47ab63caf17238db1c4bc3b531da376564736f6c63430008110033",
  "linkReferences": {},
  "deployedLinkReferences": {}
}