{
  "_format": "hh-sol-artifact-1",
  "contractName": "account",
  "sourceName": "contracts/account.sol",
  "abi": [
    {
      "inputs": [
        {
          "internalType": "string",
          "name": "__password",
          "type": "string"
        },
        {
          "internalType": "uint256",
          "name": "__amount",
          "type": "uint256"
        }
      ],
      "stateMutability": "nonpayable",
      "type": "constructor"
    },
    {
      "inputs": [],
      "name": "getSavingsContract",
      "outputs": [
        {
          "internalType": "address",
          "name": "",
          "type": "address"
        }
      ],
      "stateMutability": "view",
      "type": "function"
    }
  ],
  "bytecode": "0x608060405234801561001057600080fd5b50604051610acb380380610acb833981810160405281019061003291906102bb565b8160019081610041919061052e565b5060008160405161005190610103565b61005b919061060f565b604051809103906000f080158015610077573d6000803e3d6000fd5b50905080600260006101000a81548173ffffffffffffffffffffffffffffffffffffffff021916908373ffffffffffffffffffffffffffffffffffffffff160217905550306000806101000a81548173ffffffffffffffffffffffffffffffffffffffff021916908373ffffffffffffffffffffffffffffffffffffffff16021790555050505061062a565b6103968061073583390190565b6000604051905090565b600080fd5b600080fd5b600080fd5b600080fd5b6000601f19601f8301169050919050565b7f4e487b7100000000000000000000000000000000000000000000000000000000600052604160045260246000fd5b6101778261012e565b810181811067ffffffffffffffff821117156101965761019561013f565b5b80604052505050565b60006101a9610110565b90506101b5828261016e565b919050565b600067ffffffffffffffff8211156101d5576101d461013f565b5b6101de8261012e565b9050602081019050919050565b60005b838110156102095780820151818401526020810190506101ee565b60008484015250505050565b6000610228610223846101ba565b61019f565b90508281526020810184848401111561024457610243610129565b5b61024f8482856101eb565b509392505050565b600082601f83011261026c5761026b610124565b5b815161027c848260208601610215565b91505092915050565b6000819050919050565b61029881610285565b81146102a357600080fd5b50565b6000815190506102b58161028f565b92915050565b600080604083850312156102d2576102d161011a565b5b600083015167ffffffffffffffff8111156102f0576102ef61011f565b5b6102fc85828601610257565b925050602061030d858286016102a6565b9150509250929050565b600081519050919050565b7f4e487b7100000000000000000000000000000000000000000000000000000000600052602260045260246000fd5b6000600282049050600182168061036957607f821691505b60208210810361037c5761037b610322565b5b50919050565b60008190508160005260206000209050919050565b60006020601f8301049050919050565b600082821b905092915050565b6000600883026103e47fffffffffffffffffffffffffffffffffffffffffffffffffffffffffffffffff826103a7565b6103ee86836103a7565b95508019841693508086168417925050509392505050565b6000819050919050565b600061042b61042661042184610285565b610406565b610285565b9050919050565b6000819050919050565b61044583610410565b61045961045182610432565b8484546103b4565b825550505050565b600090565b61046e610461565b61047981848461043c565b505050565b5b8181101561049d57610492600082610466565b60018101905061047f565b5050565b601f8211156104e2576104b381610382565b6104bc84610397565b810160208510156104cb578190505b6104df6104d785610397565b83018261047e565b50505b505050565b600082821c905092915050565b6000610505600019846008026104e7565b1980831691505092915050565b600061051e83836104f4565b9150826002028217905092915050565b61053782610317565b67ffffffffffffffff8111156105505761054f61013f565b5b61055a8254610351565b6105658282856104a1565b600060209050601f8311600181146105985760008415610586578287015190505b6105908582610512565b8655506105f8565b601f1984166105a686610382565b60005b828110156105ce578489015182556001820191506020850194506020810190506105a9565b868310156105eb57848901516105e7601f8916826104f4565b8355505b6001600288020188555050505b505050505050565b61060981610285565b82525050565b60006020820190506106246000830184610600565b92915050565b60fd806106386000396000f3fe6080604052348015600f57600080fd5b506004361060285760003560e01c806340d2042c14602d575b600080fd5b60336047565b604051603e919060ae565b60405180910390f35b6000600260009054906101000a900473ffffffffffffffffffffffffffffffffffffffff16905090565b600073ffffffffffffffffffffffffffffffffffffffff82169050919050565b6000609a826071565b9050919050565b60a8816091565b82525050565b600060208201905060c1600083018460a1565b9291505056fea2646970667358221220f7ade801a9506f0aa279dfccd6986d0d310b444bdceee096d4cb43c77ef1a3eb64736f6c6343000811003360806040526000805534801561001457600080fd5b50604051610396380380610396833981810160405281019061003691906100bf565b8060008190555033600160006101000a81548173ffffffffffffffffffffffffffffffffffffffff021916908373ffffffffffffffffffffffffffffffffffffffff160217905550506100ec565b600080fd5b6000819050919050565b61009c81610089565b81146100a757600080fd5b50565b6000815190506100b981610093565b92915050565b6000602082840312156100d5576100d4610084565b5b60006100e3848285016100aa565b91505092915050565b61029b806100fb6000396000f3fe608060405234801561001057600080fd5b50600436106100415760003560e01c80632e1a7d4d14610046578063b6b55f2514610062578063c1cfb99a1461007e575b600080fd5b610060600480360381019061005b9190610177565b61009c565b005b61007c60048036038101906100779190610177565b610118565b005b610086610133565b60405161009391906101b3565b60405180910390f35b600160009054906101000a900473ffffffffffffffffffffffffffffffffffffffff1673ffffffffffffffffffffffffffffffffffffffff163373ffffffffffffffffffffffffffffffffffffffff160361011557806000541115610114578060008082825461010c91906101fd565b925050819055505b5b50565b806000808282546101299190610231565b9250508190555050565b60008054905090565b600080fd5b6000819050919050565b61015481610141565b811461015f57600080fd5b50565b6000813590506101718161014b565b92915050565b60006020828403121561018d5761018c61013c565b5b600061019b84828501610162565b91505092915050565b6101ad81610141565b82525050565b60006020820190506101c860008301846101a4565b92915050565b7f4e487b7100000000000000000000000000000000000000000000000000000000600052601160045260246000fd5b600061020882610141565b915061021383610141565b925082820390508181111561022b5761022a6101ce565b5b92915050565b600061023c82610141565b915061024783610141565b925082820190508082111561025f5761025e6101ce565b5b9291505056fea2646970667358221220340f49bd0ec841cc926d0403a30b1116fba9abf6e8fc4d8803674cdfcd1ed20664736f6c63430008110033",
  "linkReferences": {},
  "deployedLinkReferences": {}
}