{
  "_format": "hh-sol-artifact-1",
  "contractName": "savings",
  "sourceName": "contracts/savings.sol",
  "abi": [
    {
      "inputs": [
        {
          "internalType": "uint256",
          "name": "amount",
          "type": "uint256"
        }
      ],
      "stateMutability": "nonpayable",
      "type": "constructor"
    },
    {
      "inputs": [
        {
          "internalType": "uint256",
          "name": "amount",
          "type": "uint256"
        }
      ],
      "name": "deposit",
      "outputs": [],
      "stateMutability": "nonpayable",
      "type": "function"
    },
    {
      "inputs": [],
      "name": "get_balance",
      "outputs": [
        {
          "internalType": "uint256",
          "name": "",
          "type": "uint256"
        }
      ],
      "stateMutability": "view",
      "type": "function"
    },
    {
      "inputs": [
        {
          "internalType": "uint256",
          "name": "amount",
          "type": "uint256"
        }
      ],
      "name": "withdraw",
      "outputs": [],
      "stateMutability": "nonpayable",
      "type": "function"
    }
  ],
  "bytecode": "0x60806040526000805534801561001457600080fd5b50604051610396380380610396833981810160405281019061003691906100bf565b8060008190555033600160006101000a81548173ffffffffffffffffffffffffffffffffffffffff021916908373ffffffffffffffffffffffffffffffffffffffff160217905550506100ec565b600080fd5b6000819050919050565b61009c81610089565b81146100a757600080fd5b50565b6000815190506100b981610093565b92915050565b6000602082840312156100d5576100d4610084565b5b60006100e3848285016100aa565b91505092915050565b61029b806100fb6000396000f3fe608060405234801561001057600080fd5b50600436106100415760003560e01c80632e1a7d4d14610046578063b6b55f2514610062578063c1cfb99a1461007e575b600080fd5b610060600480360381019061005b9190610177565b61009c565b005b61007c60048036038101906100779190610177565b610118565b005b610086610133565b60405161009391906101b3565b60405180910390f35b600160009054906101000a900473ffffffffffffffffffffffffffffffffffffffff1673ffffffffffffffffffffffffffffffffffffffff163373ffffffffffffffffffffffffffffffffffffffff160361011557806000541115610114578060008082825461010c91906101fd565b925050819055505b5b50565b806000808282546101299190610231565b9250508190555050565b60008054905090565b600080fd5b6000819050919050565b61015481610141565b811461015f57600080fd5b50565b6000813590506101718161014b565b92915050565b60006020828403121561018d5761018c61013c565b5b600061019b84828501610162565b91505092915050565b6101ad81610141565b82525050565b60006020820190506101c860008301846101a4565b92915050565b7f4e487b7100000000000000000000000000000000000000000000000000000000600052601160045260246000fd5b600061020882610141565b915061021383610141565b925082820390508181111561022b5761022a6101ce565b5b92915050565b600061023c82610141565b915061024783610141565b925082820190508082111561025f5761025e6101ce565b5b9291505056fea2646970667358221220340f49bd0ec841cc926d0403a30b1116fba9abf6e8fc4d8803674cdfcd1ed20664736f6c63430008110033",
  "linkReferences": {},
  "deployedLinkReferences": {}
}